:100000000C9462000C948A000C948A000C948A0070
:100010000C948A000C948A000C948A000C948A0038
:100020000C948A000C948A000C948A000C9442036D
:100030000C948A000C948A000C948A000C948A0018
:100040000C94A0020C948A000C9410030C94EA0205
:100050000C948A000C948A000C948A000C948A00F8
:100060000C948A000C948A000000000023002600F3
:10007000290000000000240027002A0000000000E2
:10008000250028002B0004040404040404040202D4
:100090000202020203030303030301020408102007
:1000A0004080010204081020010204081020000012
:1000B0000008000201000003040700000000000027
:1000C0000000430411241FBECFEFD8E0DEBFCDBF38
:1000D00011E0A0E0B1E0E6E3F0E102C005900D928E
:1000E000A631B107D9F721E0A6E1B1E001C01D9228
:1000F000A73EB207E1F710E0C2E6D0E004C02197C6
:10010000FE010E941308C136D107C9F70E94A0045E
:100110000C9419080C9400008F929F92AF92BF929A
:10012000FF920F931F93CF93DF93F090E4012BE0A6
:100130002F1508F44CC02091E60108E512E0021BDF
:10014000110927FD1395000F111F000F111F20919A
:10015000E501C8E8D0E0C21BD10927FDD395CC0F3B
:10016000DD1FCC0FDD1F4E010D2E000CAA08BB08B1
:100170009801012E000C440B550B281939094A0926
:100180005B09DC010E94980624EB30E040E050E07F
:100190000E946E06820E931EA41EB51E8C169D062E
:1001A0002CF0E801801691060CF4E4012297CC0FA4
:1001B000DD1F2FB7F8948F2D90E0FC01EE0FFF1F8D
:1001C000E80FF91FE154FE4FD283C1832FBFDF91A7
:1001D000CF911F910F91FF90BF90AF909F908F9004
:1001E000089590E0FC01E255FF4F2491FC01E65692
:1001F000FF4F3491FC01EA57FF4FE491EE23C9F021
:10020000222339F0233001F1A8F4213019F12230F2
:1002100029F1F0E0EE0FFF1FE458FF4FA591B491D4
:100220008FB7F894EC91611126C030953E233C9332
:100230008FBF08952730A9F02830C9F0243049F73E
:10024000809180008F7D03C0809180008F778093A4
:100250008000DFCF84B58F7784BDDBCF84B58F7D01
:10026000FBCF8091B0008F778093B000D2CF809188
:10027000B0008F7DF9CF3E2BDACFCF93DF9390E0A4
:10028000FC01E656FF4F24918A579F4FFC01849151
:100290008823D1F090E0880F991FFC01EE58FF4FA2
:1002A000A591B491FC01E458FF4FC591D49161111F
:1002B0000EC09FB7F8948C91E22FE0958E238C931B
:1002C0002881E223E8839FBFDF91CF9108958FB704
:1002D000F894EC91E22BEC938FBFF6CF3FB7F894F4
:1002E00080911E0190911F01A0912001B0912101E8
:1002F00026B5A89B05C02F3F19F00196A11DB11D81
:100300003FBFBA2FA92F982F8827BC01CD01620FBC
:10031000711D811D911D42E0660F771F881F991F77
:100320004A95D1F70895AF92BF92CF92DF92EF92A4
:10033000FF920F931F93CF93DF936C017B018B018F
:10034000040F151FEB015E01AE18BF08C017D107DF
:1003500059F06991D601ED91FC910190F081E02D69
:10036000C6010995892B79F7C501DF91CF911F91BE
:100370000F91FF90EF90DF90CF90BF90AF900895D6
:10038000FC01538D448D252F30E0842F90E0821B9B
:10039000930B541710F0CF96089501970895FC0120
:1003A000918D828D981761F0A28DAE0FBF2FB11D78
:1003B0005D968C91928D9F5F9F73928F90E00895D0
:1003C0008FEF9FEF0895FC01918D828D981731F08A
:1003D000828DE80FF11D858D90E008958FEF9FEFDE
:1003E0000895FC01918D228D892F90E0805C9F4FB4
:1003F000821B91098F739927089582E291E00E94F0
:10040000F10121E0892B09F420E0822F089580E09A
:1004100090E0892B29F00E94FD0181110C940000CD
:100420000895FC01A48DA80FB92FB11DA35ABF4F89
:100430002C91848D90E001968F739927848FA689E3
:10044000B7892C93A089B1898C91837080648C9337
:10045000938D848D981306C00288F389E02D8081E6
:100460008F7D80830895EF92FF920F931F93CF9318
:10047000DF93EC0181E0888F9B8D8C8D98131AC0DF
:10048000E889F989808185FF15C09FB7F894EE89C6
:10049000FF896083E889F989808183708064808323
:1004A0009FBF81E090E0DF91CF911F910F91FF906E
:1004B000EF900895F62E0B8D10E00F5F1F4F0F7316
:1004C0001127E02E8C8D8E110CC00FB607FCFACFD1
:1004D000E889F989808185FFF5CFCE010E9411025C
:1004E000F1CFEB8DEC0FFD2FF11DE35AFF4FF082A2
:1004F0009FB7F8940B8FEA89FB8980818062CFCF08
:10050000CF93DF93EC01888D8823B9F0AA89BB894A
:10051000E889F9898C9185FD03C0808186FD0DC035
:100520000FB607FCF7CF8C9185FFF2CF808185FF56
:10053000EDCFCE010E941102E9CFDF91CF91089556
:100540001F920F920FB60F9211242F933F938F9308
:100550009F93AF93BF9380911A0190911B01A0913B
:100560001C01B0911D013091190123E0230F2D379B
:1005700058F50196A11DB11D2093190180931A0110
:1005800090931B01A0931C01B0931D0180911E014B
:1005900090911F01A0912001B09121010196A11D10
:1005A000B11D80931E0190931F01A0932001B09371
:1005B0002101BF91AF919F918F913F912F910F900A
:1005C0000FBE0F901F90189526E8230F0296A11DCD
:1005D000B11DD2CF1F920F920FB60F9211242F93FD
:1005E0003F934F935F936F937F938F939F93AF93BB
:1005F000BF93EF93FF9382E291E00E941102FF917B
:10060000EF91BF91AF919F918F917F916F915F918A
:100610004F913F912F910F900FBE0F901F90189503
:100620001F920F920FB60F9211242F938F939F93C7
:10063000EF93FF93E0913201F09133018081E091DB
:100640003801F091390182FD1BC0908180913B01FE
:100650008F5F8F7320913C01821741F0E0913B0145
:10066000F0E0EE5DFE4F958F80933B01FF91EF919F
:100670009F918F912F910F900FBE0F901F90189503
:100680008081F4CF1F920F920FB60F9211242F93F7
:100690003F934F935F936F937F938F939F93AF930A
:1006A000BF93CF93DF93EF93FF9380911601C09197
:1006B000E301D0E087FF24C01092850010928400EF
:1006C000809116018F5F8093160180911601082E8C
:1006D000000C990B8C179D0724F4809116018C3027
:1006E000C4F18091840090918500049680349C49E7
:1006F00008F47AC08091840090918500049676C0B9
:1007000080911601082E000C990B8C179D07C4F6DA
:10071000E09116018E2FEE0F990BFC01EE0FFF1FDB
:10072000E80FF91FE154FE4F808186FFC9CFE091A9
:1007300016018E2FEE0F990BFC01EE0FFF1FE80F35
:10074000F91FE154FE4F808160E08F730E94F10039
:10075000B7CF2091840030918500E09116018E2F53
:10076000EE0F990BFC01EE0FFF1FE80FF91FE1548C
:10077000FE4F81819281820F931F90938900809315
:100780008800E09116018E2FEE0F990BFC01EE0F01
:10079000FF1FE80FF91FE154FE4F808186FF11C053
:1007A000E09116018E2FEE0F990BFC01EE0FFF1F4B
:1007B000E80FF91FE154FE4F808161E08F730E94C2
:1007C000F100FF91EF91DF91CF91BF91AF919F9198
:1007D0008F917F916F915F914F913F912F910F90EA
:1007E0000FBE0F901F90189580E49CE990938900AC
:1007F000809388008FEF80931601E3CFCF92DF9232
:10080000EF92FF920F931F93E82FF92F05C001502D
:1008100011092109310961F1908196239417B9F3E7
:1008200005C0015011092109310911F19081962368
:100830009413F7CFC12CD12CE12CF12C0AC08FEFEF
:10084000C81AD80AE80AF80A0C151D052E053F0536
:1008500079F080818623841791F36C2D7D2D8E2D68
:100860009F2D1F910F91FF90EF90DF90CF900895F3
:1008700060E070E080E090E01F910F91FF90EF90BA
:10088000DF90CF900895109225011092240188EEF8
:1008900093E0A0E0B0E08093260190932701A0931D
:1008A0002801B093290184E091E090932301809383
:1008B000220185EC90E090932F0180932E0184EC2F
:1008C00090E0909331018093300180EC90E0909320
:1008D00033018093320181EC90E090933501809355
:1008E000340182EC90E0909337018093360186ECDE
:1008F00090E0909339018093380110923B0110925F
:100900003C0110923D0110923E018091E3018C3038
:1009100098F491E0980F9093E3018093E40190E0C4
:10092000FC01EE0FFF1FE80FF91FE154FE4F88EBAB
:100930009BE09283818308958FEF8093E401089573
:10094000CF93DF93CDB7DEB7A1970FB6F894DEBF94
:100950000FBECDBF789484B5826084BD84B58160BC
:1009600084BD85B5826085BD85B5816085BD80917A
:100970006E00816080936E001092810080918100F2
:1009800082608093810080918100816080938100EA
:10099000809180008160809380008091B1008460AC
:1009A0008093B1008091B00081608093B00080910D
:1009B0007A00846080937A0080917A0082608093CC
:1009C0007A0080917A00816080937A0080917A0029
:1009D000806880937A001092C1008091E4018C308D
:1009E00008F051C061E086E00E943D018091E40181
:1009F000282F30E0F901EE0FFF1FE20FF31FE15443
:100A0000FE4F9081907C966090831092E501109249
:100A1000E6012CE0622F0E940708829FB00111249A
:100A200030E020E0AB01420F531FFA01EE0FFF1F31
:100A3000E40FF51FE154FE4F908196FD16C02F5F25
:100A40003F4F2C30310571F781110FC0109280009B
:100A500082E0809381001092850010928400B19A08
:100A600080916F00826080936F00E091E4018E2F8F
:100A700090E0FC01EE0FFF1FE80FF91FE154FE4F5D
:100A800080818064808361E082E00E943D0160E0BB
:100A900083E00E943D01E0913201F091330182E058
:100AA0008083E0912E01F0912F011082E0913001BE
:100AB000F09131018FEC808310923A01E091360180
:100AC000F091370186E08083E0913401F0913501A7
:100AD000808180618083E0913401F09135018081D3
:100AE00088608083E0913401F091350180818068D5
:100AF0008083E0913401F091350180818F7D808386
:100B00004FE0242E312C5AE0852E912CA12CB12CB3
:100B100060E082E00E94F100C1010197F1F761E01D
:100B200082E00E94F10083E290E00197F1F760E03B
:100B300082E00E94F10060E083E00E943D01EDE967
:100B4000F0E06491E9E8F0E08491E82FF0E0EE0F46
:100B5000FF1FE859FF4F8591949100E412E42FE0C4
:100B600030E0462F0E94FE03611571058105910555
:100B700029F06F5F7F4F8F4F9F4F9F70959587959F
:100B8000779567950E947B072DEC3CEC48EE51E48D
:100B90000E94D1060E9443077093180160931701C9
:100BA0006B01770FEE08FF08F7FE7BC06DE282E273
:100BB00091E00E94330222273327A9012C193D0915
:100BC0004E095F0919A2CE0181967C01CA01B901C3
:100BD000A50194010E94A006605DF70162937F0168
:100BE000211531054105510589F7E114F10461F042
:100BF00001900020E9F73197AF014E195F09B70165
:100C000082E291E00E94930142E050E062E171E0F3
:100C100082E291E00E9493010E946E012B013C014F
:100C200084E6C82ED12CE12CF12C0E946E016419AF
:100C3000750986099709683E734081059105A8F3F7
:100C4000F1E0CF1AD108E108F10828EE420E23E0C6
:100C5000521E611C711CC114D104E104F10429F776
:100C6000E0901701F0901801C7010197049720F454
:100C700087E990E00E948C00C7010597059738F539
:100C80008CE390E00E948C0080E090E0892B09F4D6
:100C90003FCF0E94FD01882309F43ACF0E94000053
:100CA00037CFA701960119A2CE0181967C01CA0116
:100CB000B901A50194010E94A006605DF70162934D
:100CC0007F01211531054105510589F78ECFFAE0E5
:100CD000EF16F104CCF28AE590E0D4CF052E97FB15
:100CE0001EF400940E94850657FD07D00E94A006BE
:100CF00007FC03D04EF40C94850650954095309532
:100D000021953F4F4F4F5F4F089590958095709577
:100D100061957F4F8F4F9F4F08950E94C206A59FF8
:100D2000900DB49F900DA49F800D911D11240895E6
:100D3000B7FF0C948D060E948D06821B930B0895BD
:100D4000A1E21A2EAA1BBB1BFD010DC0AA1FBB1FCF
:100D5000EE1FFF1FA217B307E407F50720F0A21B41
:100D6000B30BE40BF50B661F771F881F991F1A94AE
:100D700069F760957095809590959B01AC01BD01D8
:100D8000CF010895A29FB001B39FC001A39F700D32
:100D9000811D1124911DB29F700D811D1124911D83
:100DA00008950E94E5060C94CD070E94C60758F0EE
:100DB0000E94BF0740F029F45F3F29F00C94B6076A
:100DC00051110C9401080C94BC070E94DE0768F3D3
:100DD0009923B1F3552391F3951B550BBB27AA27F4
:100DE00062177307840738F09F5F5F4F220F331F2E
:100DF000441FAA1FA9F335D00E2E3AF0E0E832D0F6
:100E000091505040E695001CCAF72BD0FE2F29D0F8
:100E1000660F771F881FBB1F261737074807AB07CA
:100E2000B0E809F0BB0B802DBF01FF2793585F4F3F
:100E30003AF09E3F510578F00C94B6070C940108E7
:100E40005F3FE4F3983ED4F3869577956795B79521
:100E5000F7959F5FC9F7880F911D9695879597F92C
:100E60000895E1E0660F771F881FBB1F62177307A5
:100E70008407BA0720F0621B730B840BBA0BEE1FBA
:100E800088F7E09508950E944A076894B1110C9480
:100E9000010808950E94E60788F09F5798F0B92F3F
:100EA0009927B751B0F0E1F0660F771F881F991F9F
:100EB0001AF0BA95C9F714C0B13091F00E94000839
:100EC000B1E008950C940008672F782F8827B85F49
:100ED00039F0B93FCCF3869577956795B395D9F7F7
:100EE0003EF490958095709561957F4F8F4F9F4F01
:100EF0000895E89409C097FB3EF49095809570950D
:100F000061957F4F8F4F9F4F9923A9F0F92F96E955
:100F1000BB279395F695879577956795B795F111CA
:100F2000F8CFFAF4BB0F11F460FF1BC06F5F7F4F67
:100F30008F4F9F4F16C0882311F096E911C0772379
:100F400021F09EE8872F762F05C0662371F096E882
:100F5000862F70E060E02AF09A95660F771F881F51
:100F6000DAF7880F9695879597F9089597F99F670F
:100F700080E870E060E008959FEF80EC0895002421
:100F80000A941616170618060906089500240A94EE
:100F900012161306140605060895092E0394000C74
:100FA00011F4882352F0BB0F40F4BF2B11F460FF03
:100FB00004C06F5F7F4F8F4F9F4F089557FD90582C
:100FC000440F551F59F05F3F71F04795880F97FB0D
:100FD000991F61F09F3F79F08795089512161306C7
:100FE0001406551FF2CF4695F1DF08C016161706F6
:100FF0001806991FF1CF869571056105089408952B
:10100000E894BB2766277727CB0197F90895991BAA
:1010100079E004C0991F961708F0961B881F7A95EF
:10102000C9F780950895EE0FFF1F0590F491E02D0C
:061030000994F894FFCFC3
:101036000000000033029301C0018002F101CF01DC
:06104600E3010D0A0000A9
:00000001FF
