:100000000C945D000C9485000C9485000C94850084
:100010000C9485000C9485000C9485000C9485004C
:100020000C9485000C9485000C9485000C9485003C
:100030000C9485000C9485000C9485000C9485002C
:100040000C944B030C9485000C9485000C94850053
:100050000C9485000C9485000C9485000C9485000C
:100060000C9495030C9485000000000024002700E8
:100070002A0000000000250028002B0004040404CE
:100080000404040402020202020203030303030342
:10009000010204081020408001020408102001021F
:1000A00004081020000000080002010000030407FB
:1000B0000000000000000000B40411241FBECFEFB8
:1000C000D8E0DEBFCDBF11E0A0E0B1E0E0EEFCE0A3
:1000D00002C005900D92A033B107D9F722E0A0E34A
:1000E000B1E001C01D92A530B207E1F710E0CDE507
:1000F000D0E004C02197FE010E946806CC35D107EC
:10010000C9F70E94D4040C946E060C94000090E091
:10011000FC01EC55FF4F2491FC01E057FF4F349157
:10012000FC01E458FF4FE491EE23C9F0222339F09B
:10013000233001F1A8F4213019F1223029F1F0E047
:10014000EE0FFF1FEE58FF4FA591B4918FB7F894B3
:10015000EC91611126C030953E233C938FBF0895EA
:100160002730A9F02830C9F0243049F78091800069
:100170008F7D03C0809180008F7780938000DFCFD8
:1001800084B58F7784BDDBCF84B58F7DFBCF809125
:10019000B0008F778093B000D2CF8091B0008F7D78
:1001A000F9CF3E2BDACFCF93DF9390E0FC01E057FD
:1001B000FF4F249184589F4FFC0184918823D1F0F4
:1001C00090E0880F991FFC01E859FF4FA591B49169
:1001D000FC01EE58FF4FC591D49161110EC09FB73D
:1001E000F8948C91E22FE0958E238C932881E22362
:1001F000E8839FBFDF91CF9108958FB7F894EC917A
:10020000E22BEC938FBFF6CF3FB7F8948091E901D2
:100210009091EA01A091EB01B091EC0126B5A89B69
:1002200005C02F3F19F00196A11DB11D3FBFBA2F88
:10023000A92F982F8827BC01CD01620F711D811D48
:10024000911D42E0660F771F881F991F4A95D1F7CD
:1002500008958F929F92AF92BF92CF92DF92EF92CA
:10026000FF924B015C010E9404016B017C010E9422
:1002700004016C197D098E099F09683E7340810550
:100280009105A8F321E0821A9108A108B10888EE2F
:10029000C80E83E0D81EE11CF11C81149104A10456
:1002A000B10429F7FF90EF90DF90CF90BF90AF900F
:1002B0009F908F900895AF92BF92CF92DF92EF926E
:1002C000FF920F931F93CF93DF936C017B018B0100
:1002D000040F151FEB015E01AE18BF08C017D10750
:1002E00059F06991D601ED91FC910190F081E02DDA
:1002F000C6010995892B79F7C501DF91CF911F912F
:100300000F91FF90EF90DF90CF90BF90AF90089546
:100310000895089585ED8093BC008091BC0084FD14
:10032000FCCF1092DF01089520919201260F332710
:10033000331F21323105ECF42091DF01FC0190E004
:1003400080E0243069F082E00895A091920121912B
:10035000AC014E585E4FA40FB52FB11D2C930196E2
:10036000861798F380919201680F6093920180E064
:10037000089581E008950895E091E3018091E201FC
:10038000E81730F4F0E0EE5AFE4F808190E00895D7
:100390008FEF9FEF08959091E3018091E2012FEF9D
:1003A0003FEF981748F4E92FF0E0EE5AFE4F208116
:1003B00030E09F5F9093E301C90108958091E201CD
:1003C0009091E301891B990B0895CF92DF92EF92F0
:1003D000FF920F931F93CF93DF937C01CB018A0190
:1003E00020915101222389F0EB016B01C40ED51E2F
:1003F000CC15DD0569F06991D701ED91FC91019073
:10040000F081E02DC7010995F3CF642F0E9494017C
:10041000C801DF91CF911F910F91FF90EF90DF9076
:10042000CF900895CF93DF931F92CDB7DEB7698346
:10043000209151012223F9F02091E001203258F05F
:1004400021E030E0FC013383228390E080E00F90D4
:10045000DF91CF9108958091E101E82FF0E0EF5C0A
:10046000FE4F998190838F5F8093E1018093E0013B
:1004700081E090E0ECCF61E0CE0101960E94940112
:10048000F7CFCF93FC01C48121E020935101C093A9
:1004900030011092E1011092E0018385682B8DEE0E
:1004A00091E00E9412029091E001913208F03FC069
:1004B0008091DF018111FCCF82E08093DF0181E038
:1004C0008093DE018FEF8093B5011092D701909356
:1004D000D601A1E3B1E0E6EBF1E080E098132FC094
:1004E0001092D8018091D801CC0FC82BC093D801AD
:1004F0008091DD01813039F51092DD018091D801C4
:100500008093BB008091BC0083FDF8CF85EC809385
:10051000BC008091DF018230E1F38091B5018F3F13
:1005200031F08091B501803211F08091B5011092C7
:10053000E1011092E00110925101CF9108952D91A7
:1005400021938F5FCBCF85EEE2CF089590E080E0DE
:1005500008950F931F93CF938C01C62F0E944102E1
:100560006C2F6460C8010E9441026C2F6B7FC80130
:100570000E94410283EC90E00197F1F7CF911F9127
:100580000F9108950F931F93CF93DF938C01D62F74
:10059000C42F607F642B0E94A90280E1D89FB00124
:1005A00011246C2BC801DF91CF911F910F910C94F6
:1005B000A902CF93DF93823028F09091FE019860DA
:1005C0009093FE018093010262E370E080E090E08E
:1005D0000E9429016091040289EF91E00E9441028A
:1005E00068EE73E080E090E00E94290160E389EF0B
:1005F00091E00E94A902CBE4D6E4CE010197F1F785
:1006000060E389EF91E00E94A9022197F1F760E38E
:1006100089EF91E00E94A90283E592E00197F1F74A
:1006200060E289EF91E00E94A9026091FE016062A0
:1006300040E089EF91E00E94C20284E08093FF01D4
:1006400040E06CE089EF91E00E94C20240E061E08E
:1006500089EF91E00E94C202CBE3DFE1CE01019776
:10066000F1F782E08093000240E066E089EF91E0DC
:100670000E94C20240E062E089EF91E00E94C20263
:100680002197F1F7DF91CF91089541E00E94C202D6
:1006900081E090E008951F920F920FB60F921124FF
:1006A0002F933F938F939F93AF93BF938091E501D7
:1006B0009091E601A091E701B091E8013091E40149
:1006C00023E0230F2D3758F50196A11DB11D20936E
:1006D000E4018093E5019093E601A093E701B093D4
:1006E000E8018091E9019091EA01A091EB01B091BC
:1006F000EC010196A11DB11D8093E9019093EA01DF
:10070000A093EB01B093EC01BF91AF919F918F91BA
:100710003F912F910F900FBE0F901F90189526E8D4
:10072000230F0296A11DB11DD2CF1F920F920FB6BB
:100730000F9211242F933F934F935F936F937F9367
:100740008F939F93AF93BF93EF93FF938091B900E3
:10075000887F803609F44AC0F0F5883209F4A7C0D2
:1007600018F5803109F49BC0B8F4882309F4F9C066
:10077000883009F494C0FF91EF91BF91AF919F91A0
:100780008F917F916F915F914F913F912F910F903A
:100790000FBE0F901F901895883109F488C08032E1
:1007A00051F78093B50114C0803409F49DC040F422
:1007B0008033B9F38833F9F68093B50185ECB0C086
:1007C000803509F485C0883509F496C0883499F6D7
:1007D0000E948A01D0CF883909F48CC038F5883757
:1007E00029F050F4883611F0803729F683E08093A1
:1007F000DF011092B40157C0883809F47BC08039FA
:1008000019F0803809F0B7CF8091B401803208F038
:1008100071C0E091B40181E08E0F8093B4018091AA
:10082000BB00F0E0EC56FE4F80833DC0803B39F0CA
:10083000E0F4803A09F479C0883A09F09CCF84E06A
:100840008093DF011092930110929201E091DB01FD
:10085000F091DC0109958091920181110FC081E036
:10086000809392011092720109C0803C09F4A6CFD6
:10087000883C09F4A3CF883B09F07DCFE091930138
:1008800081E08E0F80939301F0E0EE58FE4F80815F
:100890008093BB00909193018091920129C0809137
:1008A000D8018093BB0085EC8093BC0064CF90910D
:1008B000D7018091D601981758F5E091D70181E0D2
:1008C0008E0F8093D701F0E0EA54FE4F8081E9CF8C
:1008D000E091D70181E08E0F8093D7018091BB001A
:1008E000F0E0EA54FE4F80839091D7018091D601C9
:1008F0009817C8F285E8D8CFE091D70181E08E0F34
:100900008093D7018091BB00F0E0EA54FE4F8083D2
:100910008091DE0181115CCF81E08093DD0184EA6A
:100920008093BC001092DF0126CF85EC8093BC0041
:100930001092DF018091B401803230F4E091B40173
:10094000F0E0EC56FE4F10826091B40170E0E0914F
:10095000D901F091DA0184E991E009951092B4018E
:100960000ACF1092B50134CFEDEEF1E0138212827E
:1009700088EE93E0A0E0B0E084839583A683B783FC
:1009800084E091E091838083E9EFF1E013821282A9
:1009900086E191E0918380838FE3848380E1818786
:1009A00082E0828713860895CF93DF93CDB7DEB7B9
:1009B000A1970FB6F894DEBF0FBECDBF789484B573
:1009C000826084BD84B5816084BD85B5826085BD4B
:1009D00085B5816085BD80916E00816080936E00D9
:1009E00010928100809181008260809381008091CB
:1009F000810081608093810080918000816080937C
:100A000080008091B10084608093B1008091B0003B
:100A100081608093B00080917A00846080937A0036
:100A200080917A00826080937A0080917A00816060
:100A300080937A0080917A00806880937A00109287
:100A4000C10061E086E00E94D30060E08EE00E9479
:100A5000D3001092E3011092E2011092E101109292
:100A6000E0011092DF0181E08093DE011092DD0150
:100A700061E082E10E94870061E083E10E948700DB
:100A80008091B9008E7F8093B9008091B9008D7FED
:100A90008093B90088E48093B80085E48093BC001B
:100AA00088E891E09093DC018093DB0189E891E094
:100AB0009093DA018093D9011092FE018091030294
:100AC0000E94D90288E08093040260E089EF91E0FF
:100AD0000E94410282E00E94D90280E4382E9AEA04
:100AE000C92E90E0D92E2AE0822E912CA12CB12C77
:100AF00030E0E32E30E0F32E30927C0080917A00DB
:100B0000806480937A0080917A0086FDFCCF80918A
:100B1000780000917900102F082F61E086E00E9494
:100B2000D3000115110509F055C060E086E00E9470
:100B3000870064E670E080E090E00E94290140E0D8
:100B400060E889EF91E00E94C2022801012E000CAA
:100B50006608770817FF84C041E06DE289EF91E0F5
:100B60000E94C20222273327A90124193509460908
:100B7000570919A28E010F5D1F4FCA01B901A501C6
:100B800094010E944606605DF80162938F01211571
:100B900031054105510589F70115110561F00190F5
:100BA0000020E9F73197AF01401B510BB80189EFE5
:100BB00091E00E945B0140E150E06EE171E089EF5D
:100BC00091E00E945B01E114F10409F495CF0E94C9
:100BD000000092CF0F3F110511F461E0A7CFF6019D
:100BE0008491833019F140F48130B1F08230C9F042
:100BF0000038110594F799CF873011F1883041F111
:100C00008430B1F7809180008062809380001093DF
:100C10008B0000938A008DCF84B5806884BD07BDAA
:100C200088CF84B5806284BD08BD83CF8091800069
:100C3000806880938000109389000093880079CFAA
:100C40008091B00080688093B0000093B30071CFB2
:100C50008091B00080628093B0000093B40069CFAF
:100C6000A301920119A28E010F5D1F4FCA01B901A4
:100C7000A50194010E944606605DF80162938F0110
:100C8000211531054105510589F786CFA1E21A2EBC
:100C9000AA1BBB1BFD010DC0AA1FBB1FEE1FFF1F20
:100CA000A217B307E407F50720F0A21BB30BE40B70
:100CB000F50B661F771F881F991F1A9469F76095B7
:100CC0007095809590959B01AC01BD01CF01089571
:100CD000EE0FFF1F0590F491E02D0994F894FFCFDB
:100CE000000000001202E501A602BB01DE01CB01FB
:100CF000BC010000000045035B01A602A502202004
:100D00002020202020202020202020202020000023
:00000001FF
