:100000000C9462000C948A000C948A000C948A0070
:100010000C948A000C948A000C948A000C94A2021E
:100020000C948A000C948A000C948A000C948A0028
:100030000C948A000C948A000C948A000C948A0018
:100040000C9400020C948A000C9470020C944A02E6
:100050000C948A000C948A000C948A000C948A00F8
:100060000C948A000C948A00000000080002010031
:100070000003040700000000000000000000000072
:10008000240027002A000000000023002600290089
:1000900000000000250028002B00040404040404D0
:1000A0000404020202020202030303030303010227
:1000B00004081020408001020408102001020408F6
:1000C0001020C70211241FBECFEFD8E0DEBFCDBF86
:1000D00011E0A0E0B1E0EEEAFAE002C005900D9276
:1000E000A632B107D9F721E0A6E2B1E001C01D9226
:1000F000A43EB207E1F710E0C2E6D0E004C02197C9
:10010000FE010E944F05C136D107C9F70E94340392
:100110000C9455050C9400003FB7F8948091310180
:1001200090913201A0913301B091340126B5A89B82
:1001300005C02F3F19F00196A11DB11D3FBFBA2F79
:10014000A92F982F8827BC01CD01620F711D811D39
:10015000911D42E0660F771F881F991F4A95D1F7BE
:1001600008958F929F92AF92BF92CF92DF92EF92BB
:10017000FF920E948C004B015C0182E3C82ED12CBF
:10018000E12CF12C0E948C00681979098A099B09DD
:10019000683E734081059105A8F321E0C21AD10899
:1001A000E108F10888EE880E83E0981EA11CB11CBE
:1001B000C114D104E104F10429F7FF90EF90DF901E
:1001C000CF90BF90AF909F908F900895AF92BF92C5
:1001D000CF92DF92EF92FF920F931F93CF93DF9313
:1001E0006C017B018B01040F151FEB015E01AE1842
:1001F000BF08C017D10759F06991D601ED91FC9164
:100200000190F081E02DC6010995892B79F7C50190
:10021000DF91CF911F910F91FF90EF90DF90CF90E2
:10022000BF90AF900895FC01538D448D252F30E091
:10023000842F90E0821B930B541710F0CF960895F3
:1002400001970895FC01918D828D981761F0A28D20
:10025000AE0FBF2FB11D5D968C91928D9F5F9F73E6
:10026000928F90E008958FEF9FEF0895FC01918D9C
:10027000828D981731F0828DE80FF11D858D90E009
:1002800008958FEF9FEF0895FC01918D228D892FA6
:1002900090E0805C9F4F821B91098F73992708958E
:1002A00085E391E00E94440121E0892B09F420E0DC
:1002B000822F089580E090E0892B29F00E94500160
:1002C00081110C9400000895FC01A48DA80FB92F92
:1002D000B11DA35ABF4F2C91848D90E001968F736E
:1002E0009927848FA689B7892C93A089B1898C918D
:1002F000837080648C93938D848D981306C00288DC
:10030000F389E02D80818F7D80830895EF92FF92A5
:100310000F931F93CF93DF93EC0181E0888F9B8D28
:100320008C8D98131AC0E889F989808185FF15C0E2
:100330009FB7F894EE89FF896083E889F989808105
:100340008370806480839FBF81E090E0DF91CF91D4
:100350001F910F91FF90EF900895F62E0B8D10E0F6
:100360000F5F1F4F0F731127E02E8C8D8E110CC065
:100370000FB607FCFACFE889F989808185FFF5CFB0
:10038000CE010E946401F1CFEB8DEC0FFD2FF11D2A
:10039000E35AFF4FF0829FB7F8940B8FEA89FB89ED
:1003A00080818062CFCFCF93DF93EC01888D88234B
:1003B000B9F0AA89BB89E889F9898C9185FD03C0C8
:1003C000808186FD0DC00FB607FCF7CF8C9185FFAD
:1003D000F2CF808185FFEDCFCE010E946401E9CF8D
:1003E000DF91CF910895FC0101900020E9F731974A
:1003F000AF01481B590BBC0185E391E00C94E6006A
:100400001F920F920FB60F9211242F933F938F9349
:100410009F93AF93BF9380912D0190912E01A09156
:100420002F01B091300130912C0123E0230F2D37A3
:1004300058F50196A11DB11D20932C0180932D012B
:1004400090932E01A0932F01B09330018091310140
:1004500090913201A0913301B09134010196A11D18
:10046000B11D8093310190933201A0933301B09379
:100470003401BF91AF919F918F913F912F910F9038
:100480000FBE0F901F90189526E8230F0296A11D0E
:10049000B11DD2CF1F920F920FB60F9211242F933E
:1004A0003F934F935F936F937F938F939F93AF93FC
:1004B000BF93EF93FF9385E391E00E946401FF9166
:1004C000EF91BF91AF919F918F917F916F915F91CC
:1004D0004F913F912F910F900FBE0F901F90189545
:1004E0001F920F920FB60F9211242F938F939F9309
:1004F000EF93FF93E0914501F09146018081E091F7
:100500004B01F0914C0182FD1BC0908180914E0106
:100510008F5F8F7320914F01821741F0E0914E0160
:10052000F0E0EB5CFE4F958F80934E01FF91EF91D1
:100530009F918F912F910F900FBE0F901F90189544
:100540008081F4CF1F920F920FB60F9211242F9338
:100550003F934F935F936F937F938F939F93AF934B
:10056000BF93EF93FF93F0E0E0E00995FF91EF91E7
:10057000BF91AF919F918F917F916F915F914F91BB
:100580003F912F910F900FBE0F901F901895E5E3AC
:10059000F1E01382128288EE93E0A0E0B0E0848361
:1005A0009583A683B78384E091E09183808385EC73
:1005B00090E09587848784EC90E09787868780EC2D
:1005C00090E0918B808B81EC90E0938B828B82EC1E
:1005D00090E0958B848B86EC90E0978B868B118EC8
:1005E000128E138E148EE9EBF0E0E491A2EDB1E0EF
:1005F0001496EC931497EBEBF0E0E4911596EC93E2
:10060000159785EA90E0FC012491E22FF0E0EE0FCF
:10061000FF1FE057FF4F2591349117963C932E937F
:100620001697E7EAF0E0E491F0E0EE0FFF1FEA57DB
:10063000FF4F2591349119963C932E931897FC0106
:100640008491E82FF0E0EE0FFF1FE458FF4F8591F3
:1006500094911B969C938E931A978DE796E11D9625
:100660009C938E931C970895CF93DF93CDB7DEB7FD
:10067000A1970FB6F894DEBF0FBECDBF789484B5B6
:10068000826084BD84B5816084BD85B5826085BD8E
:1006900085B5816085BD80916E00816080936E001C
:1006A000109281008091810082608093810080910E
:1006B00081008160809381008091800081608093BF
:1006C00080008091B10084608093B1008091B0007F
:1006D00081608093B00080917A00846080937A007A
:1006E00080917A00826080937A0080917A008160A4
:1006F00080937A0080917A00806880937A001092CB
:10070000C100E0914501F091460182E08083E091D3
:100710004101F09142011082E0914301F0914401C6
:100720008FEC808310924D01E0914901F0914A01D4
:1007300086E08083E0914701F091480180818061EB
:100740008083E0914701F091480180818860808337
:10075000E0914701F0914801808180688083E091B9
:100760004701F091480180818F7D8083E7EBF0E0C5
:100770002491E3EAF0E084918823C9F090E0880FA7
:10078000991FFC01E458FF4FA591B491FC01E0577B
:10079000FF4F459154913FB7F8949C91822F8095DB
:1007A00098239C93FA019081892380833FBF33E291
:1007B000232E312C49E3C42ED12CE12CF12C5AE00C
:1007C000452E512C612C712CAA24A394B12C20E02D
:1007D000822E20E0922EE1E7F0E09491E7EBF0E04A
:1007E0008491E3EAF0E0249121111EC010922B01C4
:1007F00010922A0180912A0190912B01892B51F4AA
:1008000085E191E00E94F30182E191E00E94F30111
:100810000E94B10081149104F1F20E9450018823DA
:10082000B1F20E940000D3CF992359F0933009F41C
:100830008BC008F07EC0913009F48CC0923009F46E
:100840008DC0E22FF0E0EE0FFF1FEA57FF4FA5919A
:10085000B4919C91892351F2B0922B01A0922A016C
:10086000E091DC01F091DD0180819091D601892B2E
:100870008083E091D801F091D90190818091D601D7
:100880008095892380838BE090E00197F1F7E091D8
:10089000D801F091D90180819091D601892B808374
:1008A000C1010197F1F7E091D801F091D901908150
:1008B0008091D601809589238083E091DC01F091BD
:1008C000DD0190818091D601809589238083E0911C
:1008D000DA01F091DB0180819091D701892309F43D
:1008E0004AC090E080E0BC0190E080E0A701960162
:1008F0000E942D0519A28E010F5D1F4FCA01B9017B
:10090000A30192010E942D05605DF80162938F01A1
:10091000211531054105510589F7309719F0CF01AF
:100920000E94F30182E191E00E94F3010E94B10074
:1009300061CF9730B1F09830D1F0943009F081CF89
:10094000909180009F7D03C0909180009F7790934D
:10095000800077CF94B59F7794BD73CF94B59F7D7A
:10096000FBCF9091B0009F779093B0006ACF9091A9
:10097000B0009F7DF9CF0E948C00AB01BC0180913B
:10098000DE019091DF01B0E0A0E08855994EAF4FB5
:10099000BF4F840F951FA61FB71F8093E001909350
:1009A000E101A093E201B093E301E091DA01F0915B
:1009B000DB0180819091D701892381F40E948C0012
:1009C0000091E0011091E1012091E2013091E301F9
:1009D000061717072807390740F783CF0E948C00B6
:1009E0002091DE013091DF01620F731F811D911D87
:1009F0006093E0017093E1018093E2019093E30141
:100A0000E091DA01F091DB0180819091D701892397
:100A100081F00E948C000091E0011091E101209191
:100A2000E2013091E301061717072807390740F75D
:100A300058CF0E948C002091DE013091DF01A90186
:100A4000455051092091E0013091E101FA01E21B8A
:100A5000F30BCF01860F971F46CFA1E21A2EAA1BD8
:100A6000BB1BFD010DC0AA1FBB1FEE1FFF1FA2175E
:100A7000B307E407F50720F0A21BB30BE40BF50B5B
:100A8000661F771F881F991F1A9469F760957095E4
:100A9000809590959B01AC01BD01CF010895EE0FAB
:0E0AA000FF1F0590F491E02D0994F894FFCF0C
:100AAE00000000008601E6001301D301440122017B
:100ABE0036010D0A005075736820746865206275E2
:060ACE0074746F6E00005D
:00000001FF
